:020000040800F2
:1000000050040020D5000008FD0D0008290D00084F
:1000100000000000000000000000000000000000E0
:10002000000000000000000000000000010E0008B9
:100030000000000000000000FF0D0008030E000893
:10004000E7000008E7000008E7000008E7000008F4
:10005000E7000008E7000008E7000008E7000008E4
:10006000E7000008E7000008E7000008E7000008D4
:10007000E7000008E7000008E7000008E7000008C4
:10008000E7000008E7000008E7000008E7000008B4
:10009000E7000008E7000008E7000008E7000008A4
:1000A000E7000008E7000008E7000008E700000894
:1000B000E7000008E7000008E7000008E700000884
:1000C0000348854600F08EF800480047E30E00081C
:1000D000500400200448804704480047FEE7FEE73C
:1000E000FEE7FEE7FEE7FEE74F0E0008C10000084E
:1000F00030B50B46014600202022012409E00D46C0
:10010000D5409D4205D31D469540491B2546954047
:1001100040191546521E002DF1DC30BDF0B51FB45C
:100120000646002082B005464024019100901BE065
:10013000019922460F46304600F020F8049A059BAC
:10014000801A994110D310461946224600F039F81A
:10015000361A8F410197224601200021009F00F0AE
:1001600030F838184D4100902046641E0028DFDC2E
:10017000019B00982946324607B0F0BD10B5202AF1
:1001800004DB0846203AD040002110BD0B46D34086
:10019000D0402024A21A91400843194610BDD2B283
:1001A00001E00270401C491EFBD270470022F6E7B6
:1001B00010B513460A4604461946FFF7F0FF2046DD
:1001C00010BD10B5202A04DB0146203A91400020E2
:1001D00010BD914020239C1A0346E34019439040F0
:1001E00010BD0000064C0125064E05E0E36807CC73
:1001F0002B430C3C98471034B442F7D3FFF764FF0D
:10020000040F0008240F000870470000F8B500250F
:10021000044620340095227D012A3BD0012222751C
:1002200003689E68760776D43F4F4E68BE4254D02E
:100230009E6A0F78BA4016439E620123C26A1B076A
:100240009A421FD0012A1DD0022A1BD0032A19D09E
:10025000042A17D0052A15D0062A13D0072A11D050
:1002600002688B6856697607760FB3420AD05369E5
:10027000DB08DB005361006842690B7A5B075B0FA8
:100280001A4342610868102806D0112804D01228A9
:1002900002D045E00220F8BD244A9368102809D016
:1002A00011280AD001200006034393600868102833
:1002B00006D035E00120C005F6E701208005F3E710
:1002C0001C481B490068FFF713FF0A21484300E060
:1002D000401E00900028FBD122E0986A0E78B240C0
:1002E000904398620868102803D0112801D0122882
:1002F00016D10E498A68102807D0112808D001208D
:10030000000682438A600BE005E00120C005F8E7A3
:1003100001208005F5E7816B2022114381630125CF
:10032000002020752846F8BD01100000002701407C
:1003300040420F000C000020F8B5002504460028BC
:1003400005D0A06B26462036002802D007E0012009
:10035000F8BD0020E0633075204600F0A7F8A06BE0
:100360001022104270D12068816849076CD4A16BBB
:100370001301994302231943A16381688907890FF7
:10038000012905D10168C9070FD1C16809040CD43E
:10039000C16818239943A3681943C16020680169A3
:1003A000636889008908194301612068C1683D4B71
:1003B0001940C160207E617E8003C9030843A17E8D
:1003C0004B031843A36A012B02D001231B0300E057
:1003D00000231843E36818432369022B09D0002344
:1003E00018433379E67E5B0018430123012E02D0C7
:1003F0000AE00423F4E7002927D0A16B202631432B
:10040000A163E16B1943E163E1690E46FF3EC23E21
:1004100002D0266A314308432168CE680643CE6085
:100420000126E16A3607B14213D0012911D0022911
:100430000FD003290DD004290BD0052909D0062996
:1004400007D0072905D010E028E00121090408435E
:10045000DAE721684E69F608F6004E6121684E69B8
:10046000A78D7F077F0F3E434E612168C9680E4EFE
:100470003140814207D10020E063A06B80088000FA
:10048000401CA06308E0A06B022188431043A063D6
:10049000E06B1843E06301252846F8BDA06B1043CC
:1004A000A063F8E71902FEFFE7FF3F8310B586B0AF
:1004B000044614216846FFF779FE104920688842F7
:1004C00019D10F48826941150A43826182690A4045
:1004D0000592426909020A43426140690840059059
:1004E000012000900320019000200290092069461D
:1004F000C00600F007F806B010BD0000002401405F
:1005000000100240FCB500230124A6E027462A463D
:100510009F403A4073D04D68012D05D0022D03D085
:10052000112D01D0122D16D185680326AC465D0031
:10053000AE46AE406546B543AC46CE687546AE4065
:1005400065462E43866046680D79BE43ED06ED0F85
:100550009D4035434560C6685F000325BD40AE46FB
:10056000AE4335468E68BE402E43C6604E68022EAE
:1005700001D0122E14D1DE08B60036180196366A64
:100580005D07B446EE0E0F25B54000966646AE43B5
:10059000B4460D69009EB54066462E43019D2E620D
:1005A00006687546AE430D79AD07AD0FBD403543C6
:1005B00005604D68ED004FD52B4DAE692643AE6109
:1005C000AD699E08ED07ED0F0095284DB600751931
:1005D000AC46AD689E07360F0F27B740BD430927CD
:1005E000FF06B84201D1002715E0214FB84201D1E2
:1005F000012710E01F4FB84202D102270BE02BE089
:100600001D4FB84201D1032705E01C4FB84201D16C
:10061000042700E00527B7402F436546AF60184E1A
:1006200035684F689543FF0300D5154335607568FD
:100630004F689543BF0300D515437560B5684F6893
:100640009543FF0200D51543B560F5684F689543A3
:10065000BF0200D51543F5605B1C0A681546DA40F9
:1006600000D053E7FCBD0000001002400000014034
:100670000004004800080048000C00480010004832
:1006800000040140002A01D08161704781627047F7
:10069000014880687047000000000020024881681F
:1006A00002788918816070470000002010B5064864
:1006B0000168102211430160002000F007F800F0EB
:1006C00027F8002010BD00000020024070B504464D
:1006D0000D4D7D202978C000FFF70AFD01460B482B
:1006E0000068FFF705FD00F007FB002809D1042C86
:1006F00007D200222146401E00F01EF800206C6048
:1007000070BD012070BD0000000000200C00002022
:1007100008B508488169012211438161816911404E
:100720000091C26901040A43C261C0690840009097
:1007300008BD00000010024010B500F0A1FB10BD84
:10074000F8B50F4606005FD03D4D2868C007C00FC2
:10075000B84209D228684008400038432860286819
:10076000C007C00FB8424FD13068364C81070CD556
:10077000400704D56068072109020843606060688B
:10078000F0218843B168084360603078C0072CD0FE
:100790007068012810D0022811D0032812D02168D7
:1007A0008907002930DA616889088900014361609E
:1007B000FFF76EFF009011E021688903F1E72168DF
:1007C0008901EEE7616BC903EBE7FFF761FF009971
:1007D000411A1D48814201D90320F8BD60680C21EF
:1007E0000840716889008842EFD12868C007C00FAF
:1007F000B8420BD928684008400038432860286870
:10080000C007C00FB84201D00120F8BD30784007C2
:1008100006D56068072109028843F16808436060D3
:1008200000F018F86168094A0906090F515CC840D0
:10083000074908600020FFF749FF0020F8BD0000CD
:10084000002002400010024088130000F40E00084F
:100850000C00002070B51CA20FCA88B06C460FC4F3
:100860001DA30FCB0FC4204A51680C200B46034038
:100870001E48042B06D01E4D4600082B04D00C2B1E
:100880001FD0304608B070BD8B021B0F6C46E45C75
:10089000D26A04AB1207120FC9039A5C890F0229AE
:1008A0000AD003290AD0002330460021FFF736FC86
:1008B000214600F0CDFAE5E70023F6E700232846BD
:1008C000F3E72846DEE700000203040506070809EF
:1008D0000A0B0C0D0E0F1010010203040506070889
:1008E000090A0B0C0D0E0F100010024000093D000C
:1008F000006CDC02FEB5040070D02078F94EFA4D91
:10090000C00748D068680007800F01281FD06868BA
:100910000007800F022804D16868C003800F0228F6
:1009200015D06168012919D001208004002901D067
:10093000052917D02968B1432960296881432960B6
:10094000606800281BD0FFF7A3FE074613E0286865
:10095000800320D560680028CED01CE02868304392
:100960002860EDE7296801432960F7E7FFF790FE6B
:10097000C01B642870D828688003F7D50BE0FFF708
:1009800087FE074604E0FFF783FEC01B6428F1D80A
:1009900028688003F7D4207880073FD5686800076F
:1009A000800F14D068680007800F022804D168689F
:1009B000C003800F01280AD0E068002828681ED0F4
:1009C000012108432860FFF763FE07460CE0286812
:1009D00080070CD5E068012800D108E080E1FFF72E
:1009E00057FEC01B0228C5D828688007F7D528689D
:1009F000F82188432169C900084328600EE04008B7
:100A000040002860FFF744FE074604E0FFF740FE81
:100A1000C01B0228AED828688007F7D420780007CA
:100A200023D5E0690028686A0FD001210843686275
:100A3000FFF72EFE074604E0FFF72AFEC01B022840
:100A400098D8686A8007F7D50FE0400840006862D0
:100A5000FFF71EFE074605E0C3E0FFF719FEC01BC7
:100A6000022887D8686A8007F7D4207804274007CF
:100A7000002861DA00200190E869C00008D4E96923
:100A8000B8060143E961E969014001200091019044
:100A900096480168C90511D40168821511430160A7
:100AA000FFF7F6FD009005E0FFF7F2FD0099401A10
:100AB000642898D88D480068C005F5D5A06801283D
:100AC0000AD0002801D0052811D0286A400840002B
:100AD0002862286AB84302E0286A01210843286294
:100AE000A068002812D0FFF7D3FD00900AE0286A22
:100AF00038432862F0E7FFF7CBFD0099411A7C48A4
:100B000081426ED8286A8007F5D50DE0FFF7C0FD59
:100B1000009006E0FFF7BCFD0099411A744881423D
:100B20005FD8286A8007F5D40198002804D0E969C5
:100B3000012000078143E9612078C00635D560694E
:100B400001280CD0401D686B24D038436863686B63
:100B5000400840006863FFF79BFD074622E0686B92
:100B600038436863686B012108436863FFF790FDB1
:100B7000074604E0FFF78CFDC01B022831D8686BE4
:100B80008007F7D5686BF8218843A169C90008433D
:100B900068630AE0B8436863F4E7FFF779FDC01BB8
:100BA00002281ED8686B8007F7D42078800637D5D6
:100BB00068680007800F032814D068680007800F5A
:100BC000022804D16868C003800F03280AD0206A75
:100BD0000028686B16D030436863FFF759FD06465E
:100BE0000CE062E0686BC0031AD5206A012877D157
:100BF00016E0FFF74DFD801B022856D8686BC00336
:100C0000F7D50DE0B0436863FFF742FD064604E008
:100C1000FFF73EFD801B022847D8686BC003F7D45E
:100C2000606A002866D069680907890F022942D0E6
:100C3000012636060228286805D0B0432860FFF751
:100C400027FD044633E0B0432860FFF721FD074647
:100C500004E0FFF71DFDC01B022826D8286880018C
:100C6000F7D4E86A216B000900010843E862A16A31
:100C7000E06A084369687B22D203914308436860B5
:100C8000286830432860FFF703FD044604E0FFF7BF
:100C9000FFFC001B022808D828688001F7D529E04E
:100CA000FFF7F6FC001B022801D90320FEBD2868CF
:100CB0008001F5D41EE00128F8D06868E96A0322B3
:100CC000D203A36A02409A420AD10907226B090F94
:100CD000914205D10F2189040840E16A884209D078
:100CE0000120FEBD00000100001002400070004025
:100CF000881300000020F4E7094910B5401E88421F
:100D000001D9012010BD074C60610321081F00F0CC
:100D1000B7F80020A06107202061002010BD00006E
:100D2000FFFFFF0000E000E0FEE700003EB500240A
:100D30001649174800940194029412C004600422DA
:100D40004460C26001218160047444748474C4747A
:100D5000FF22C2328461426102461832147101627C
:100D60000838FFF7E9FA002801D0FFF74DFA012013
:100D70000003019000040290009469460448FFF7C4
:100D800045FA002801D0FFF73FFA3EBD002401409C
:100D90001000002010B586B014216846FFF706FA4F
:100DA00014484269012189050A43426142690A40A7
:100DB00005924269C9100A43426142690A4005929C
:100DC000426989100A43426140690B4C0840059012
:100DD000002202212046FFF755FC0220009000214E
:100DE000012002910391019069462046FFF78AFB9A
:100DF00006B010BD00100240000800487047704760
:100E0000704710B5FFF74AFC10BD10B592B0342101
:100E10006846FFF7CBF900240F94302000900120A2
:100E20000D9408900590109410200E94069009944B
:100E30006846FFF75FFD07200D9003200E900F948A
:100E4000012110940DA8FFF77BFC12B010BD704774
:100E5000F8B5040C8BB2264682B25E430D0C1046E8
:100E6000370C5843360480190021794116466E43E9
:100E7000370C36048019794126466E438919F8BD2E
:100E80008307FF22DB0E9A408907090E994000284C
:100E900008DB830809489B001B1818689043084327
:100EA000186070470007000F0838830804489B004B
:100EB0001B18D86990430843D861704700E400E0EC
:100EC00000ED00E002E008C8121F08C1002AFAD1B4
:100ED00070477047002001E001C1121F002AFBD1BA
:100EE0007047FFF7E3FBFFF790FFFFF753FFFFF7B4
:100EF0001DFFFEE7000000000000000001020304E7
:100F000006070809240F0008000000201000000058
:100F1000C40E0008340F0008100000204004000038
:100F2000D40E0008010000000400000000000000D2
:040F300000127A0031
:04000005080000C12E
:00000001FF
